{
  "_format": "hh-sol-artifact-1",
  "contractName": "Token",
  "sourceName": "contracts/Token.sol",
  "abi": [
    {
      "inputs": [
        {
          "internalType": "address",
          "name": "tokenOwner",
          "type": "address"
        },
        {
          "internalType": "string",
          "name": "tokenName",
          "type": "string"
        },
        {
          "internalType": "string",
          "name": "tokenSymbol",
          "type": "string"
        },
        {
          "internalType": "uint256",
          "name": "supply",
          "type": "uint256"
        },
        {
          "internalType": "uint256",
          "name": "preMint",
          "type": "uint256"
        },
        {
          "internalType": "uint256",
          "name": "burnPercent",
          "type": "uint256"
        },
        {
          "internalType": "address",
          "name": "routerAddress",
          "type": "address"
        }
      ],
      "stateMutability": "nonpayable",
      "type": "constructor"
    },
    {
      "anonymous": false,
      "inputs": [
        {
          "indexed": true,
          "internalType": "address",
          "name": "owner",
          "type": "address"
        },
        {
          "indexed": true,
          "internalType": "address",
          "name": "spender",
          "type": "address"
        },
        {
          "indexed": false,
          "internalType": "uint256",
          "name": "value",
          "type": "uint256"
        }
      ],
      "name": "Approval",
      "type": "event"
    },
    {
      "anonymous": false,
      "inputs": [
        {
          "indexed": true,
          "internalType": "address",
          "name": "previousOwner",
          "type": "address"
        },
        {
          "indexed": true,
          "internalType": "address",
          "name": "newOwner",
          "type": "address"
        }
      ],
      "name": "OwnershipTransferred",
      "type": "event"
    },
    {
      "anonymous": false,
      "inputs": [
        {
          "indexed": true,
          "internalType": "address",
          "name": "from",
          "type": "address"
        },
        {
          "indexed": true,
          "internalType": "address",
          "name": "to",
          "type": "address"
        },
        {
          "indexed": false,
          "internalType": "uint256",
          "name": "value",
          "type": "uint256"
        }
      ],
      "name": "Transfer",
      "type": "event"
    },
    {
      "inputs": [],
      "name": "PLATFORM_FEE_PERCENT",
      "outputs": [
        {
          "internalType": "uint256",
          "name": "",
          "type": "uint256"
        }
      ],
      "stateMutability": "view",
      "type": "function"
    },
    {
      "inputs": [],
      "name": "TAX_DIVISOR",
      "outputs": [
        {
          "internalType": "uint256",
          "name": "",
          "type": "uint256"
        }
      ],
      "stateMutability": "view",
      "type": "function"
    },
    {
      "inputs": [],
      "name": "_feesRates",
      "outputs": [
        {
          "internalType": "uint16",
          "name": "buyFee",
          "type": "uint16"
        },
        {
          "internalType": "uint16",
          "name": "sellFee",
          "type": "uint16"
        },
        {
          "internalType": "uint16",
          "name": "transferFee",
          "type": "uint16"
        }
      ],
      "stateMutability": "view",
      "type": "function"
    },
    {
      "inputs": [
        {
          "internalType": "address",
          "name": "",
          "type": "address"
        }
      ],
      "name": "_holderLastTransferTimestamp",
      "outputs": [
        {
          "internalType": "uint256",
          "name": "",
          "type": "uint256"
        }
      ],
      "stateMutability": "view",
      "type": "function"
    },
    {
      "inputs": [
        {
          "internalType": "address",
          "name": "",
          "type": "address"
        }
      ],
      "name": "_isExcludedFromFee",
      "outputs": [
        {
          "internalType": "bool",
          "name": "",
          "type": "bool"
        }
      ],
      "stateMutability": "view",
      "type": "function"
    },
    {
      "inputs": [
        {
          "internalType": "address",
          "name": "owner",
          "type": "address"
        },
        {
          "internalType": "address",
          "name": "spender",
          "type": "address"
        }
      ],
      "name": "allowance",
      "outputs": [
        {
          "internalType": "uint256",
          "name": "",
          "type": "uint256"
        }
      ],
      "stateMutability": "view",
      "type": "function"
    },
    {
      "inputs": [
        {
          "internalType": "address",
          "name": "spender",
          "type": "address"
        },
        {
          "internalType": "uint256",
          "name": "amount",
          "type": "uint256"
        }
      ],
      "name": "approve",
      "outputs": [
        {
          "internalType": "bool",
          "name": "",
          "type": "bool"
        }
      ],
      "stateMutability": "nonpayable",
      "type": "function"
    },
    {
      "inputs": [
        {
          "internalType": "uint256",
          "name": "tokenAmount",
          "type": "uint256"
        }
      ],
      "name": "autoLiquidity",
      "outputs": [],
      "stateMutability": "nonpayable",
      "type": "function"
    },
    {
      "inputs": [],
      "name": "autoLiquidityPercent",
      "outputs": [
        {
          "internalType": "uint256",
          "name": "",
          "type": "uint256"
        }
      ],
      "stateMutability": "view",
      "type": "function"
    },
    {
      "inputs": [
        {
          "internalType": "address",
          "name": "",
          "type": "address"
        }
      ],
      "name": "automatedMarketMakerPairs",
      "outputs": [
        {
          "internalType": "bool",
          "name": "",
          "type": "bool"
        }
      ],
      "stateMutability": "view",
      "type": "function"
    },
    {
      "inputs": [
        {
          "internalType": "address",
          "name": "account",
          "type": "address"
        }
      ],
      "name": "balanceOf",
      "outputs": [
        {
          "internalType": "uint256",
          "name": "",
          "type": "uint256"
        }
      ],
      "stateMutability": "view",
      "type": "function"
    },
    {
      "inputs": [
        {
          "internalType": "uint256",
          "name": "amount",
          "type": "uint256"
        }
      ],
      "name": "burn",
      "outputs": [],
      "stateMutability": "nonpayable",
      "type": "function"
    },
    {
      "inputs": [
        {
          "internalType": "address",
          "name": "account",
          "type": "address"
        },
        {
          "internalType": "uint256",
          "name": "amount",
          "type": "uint256"
        }
      ],
      "name": "burnFrom",
      "outputs": [],
      "stateMutability": "nonpayable",
      "type": "function"
    },
    {
      "inputs": [],
      "name": "buyBackPercent",
      "outputs": [
        {
          "internalType": "uint256",
          "name": "",
          "type": "uint256"
        }
      ],
      "stateMutability": "view",
      "type": "function"
    },
    {
      "inputs": [],
      "name": "buyBackThreshold",
      "outputs": [
        {
          "internalType": "uint256",
          "name": "",
          "type": "uint256"
        }
      ],
      "stateMutability": "view",
      "type": "function"
    },
    {
      "inputs": [],
      "name": "decimals",
      "outputs": [
        {
          "internalType": "uint8",
          "name": "",
          "type": "uint8"
        }
      ],
      "stateMutability": "view",
      "type": "function"
    },
    {
      "inputs": [
        {
          "internalType": "address",
          "name": "spender",
          "type": "address"
        },
        {
          "internalType": "uint256",
          "name": "subtractedValue",
          "type": "uint256"
        }
      ],
      "name": "decreaseAllowance",
      "outputs": [
        {
          "internalType": "bool",
          "name": "",
          "type": "bool"
        }
      ],
      "stateMutability": "nonpayable",
      "type": "function"
    },
    {
      "inputs": [
        {
          "internalType": "address",
          "name": "account",
          "type": "address"
        },
        {
          "internalType": "bool",
          "name": "val",
          "type": "bool"
        }
      ],
      "name": "excludeFromFee",
      "outputs": [],
      "stateMutability": "nonpayable",
      "type": "function"
    },
    {
      "inputs": [],
      "name": "gasLimitActive",
      "outputs": [
        {
          "internalType": "bool",
          "name": "",
          "type": "bool"
        }
      ],
      "stateMutability": "view",
      "type": "function"
    },
    {
      "inputs": [],
      "name": "inSwap",
      "outputs": [
        {
          "internalType": "bool",
          "name": "",
          "type": "bool"
        }
      ],
      "stateMutability": "view",
      "type": "function"
    },
    {
      "inputs": [
        {
          "internalType": "address",
          "name": "spender",
          "type": "address"
        },
        {
          "internalType": "uint256",
          "name": "addedValue",
          "type": "uint256"
        }
      ],
      "name": "increaseAllowance",
      "outputs": [
        {
          "internalType": "bool",
          "name": "",
          "type": "bool"
        }
      ],
      "stateMutability": "nonpayable",
      "type": "function"
    },
    {
      "inputs": [],
      "name": "initialDelayTime",
      "outputs": [
        {
          "internalType": "uint256",
          "name": "",
          "type": "uint256"
        }
      ],
      "stateMutability": "view",
      "type": "function"
    },
    {
      "inputs": [
        {
          "internalType": "address",
          "name": "account",
          "type": "address"
        }
      ],
      "name": "isExcludedFromFee",
      "outputs": [
        {
          "internalType": "bool",
          "name": "",
          "type": "bool"
        }
      ],
      "stateMutability": "view",
      "type": "function"
    },
    {
      "inputs": [],
      "name": "lpPair",
      "outputs": [
        {
          "internalType": "address",
          "name": "",
          "type": "address"
        }
      ],
      "stateMutability": "view",
      "type": "function"
    },
    {
      "inputs": [],
      "name": "maxBuyLimit",
      "outputs": [
        {
          "internalType": "uint256",
          "name": "",
          "type": "uint256"
        }
      ],
      "stateMutability": "view",
      "type": "function"
    },
    {
      "inputs": [],
      "name": "maxGasPriceLimit",
      "outputs": [
        {
          "internalType": "uint256",
          "name": "",
          "type": "uint256"
        }
      ],
      "stateMutability": "view",
      "type": "function"
    },
    {
      "inputs": [],
      "name": "maxTransactionAmount",
      "outputs": [
        {
          "internalType": "uint256",
          "name": "",
          "type": "uint256"
        }
      ],
      "stateMutability": "view",
      "type": "function"
    },
    {
      "inputs": [],
      "name": "maxWalletAmount",
      "outputs": [
        {
          "internalType": "uint256",
          "name": "",
          "type": "uint256"
        }
      ],
      "stateMutability": "view",
      "type": "function"
    },
    {
      "inputs": [],
      "name": "name",
      "outputs": [
        {
          "internalType": "string",
          "name": "",
          "type": "string"
        }
      ],
      "stateMutability": "view",
      "type": "function"
    },
    {
      "inputs": [],
      "name": "owner",
      "outputs": [
        {
          "internalType": "address",
          "name": "",
          "type": "address"
        }
      ],
      "stateMutability": "view",
      "type": "function"
    },
    {
      "inputs": [],
      "name": "platformFeeAddress",
      "outputs": [
        {
          "internalType": "address",
          "name": "",
          "type": "address"
        }
      ],
      "stateMutability": "view",
      "type": "function"
    },
    {
      "inputs": [],
      "name": "platformFeeAmount",
      "outputs": [
        {
          "internalType": "uint256",
          "name": "",
          "type": "uint256"
        }
      ],
      "stateMutability": "view",
      "type": "function"
    },
    {
      "inputs": [],
      "name": "preMintAmount",
      "outputs": [
        {
          "internalType": "uint256",
          "name": "",
          "type": "uint256"
        }
      ],
      "stateMutability": "view",
      "type": "function"
    },
    {
      "inputs": [],
      "name": "renounceOwnership",
      "outputs": [],
      "stateMutability": "nonpayable",
      "type": "function"
    },
    {
      "inputs": [],
      "name": "router",
      "outputs": [
        {
          "internalType": "contract IUniswapV2Router02",
          "name": "",
          "type": "address"
        }
      ],
      "stateMutability": "view",
      "type": "function"
    },
    {
      "inputs": [
        {
          "internalType": "uint16",
          "name": "newPercent",
          "type": "uint16"
        }
      ],
      "name": "setAutoLiquidityPercent",
      "outputs": [],
      "stateMutability": "nonpayable",
      "type": "function"
    },
    {
      "inputs": [
        {
          "internalType": "uint16",
          "name": "newPercent",
          "type": "uint16"
        }
      ],
      "name": "setBuyBackPercent",
      "outputs": [],
      "stateMutability": "nonpayable",
      "type": "function"
    },
    {
      "inputs": [
        {
          "internalType": "uint256",
          "name": "newThreshold",
          "type": "uint256"
        }
      ],
      "name": "setBuyBackThreshold",
      "outputs": [],
      "stateMutability": "nonpayable",
      "type": "function"
    },
    {
      "inputs": [
        {
          "internalType": "uint256",
          "name": "percent",
          "type": "uint256"
        }
      ],
      "name": "setMaxTransactionAmount",
      "outputs": [],
      "stateMutability": "nonpayable",
      "type": "function"
    },
    {
      "inputs": [
        {
          "internalType": "uint256",
          "name": "percent",
          "type": "uint256"
        }
      ],
      "name": "setMaxWalletAmount",
      "outputs": [],
      "stateMutability": "nonpayable",
      "type": "function"
    },
    {
      "inputs": [
        {
          "internalType": "address",
          "name": "newAddress",
          "type": "address"
        }
      ],
      "name": "setPlatformFeeAddress",
      "outputs": [],
      "stateMutability": "nonpayable",
      "type": "function"
    },
    {
      "inputs": [
        {
          "internalType": "uint256",
          "name": "value",
          "type": "uint256"
        }
      ],
      "name": "setSwapThreshold",
      "outputs": [],
      "stateMutability": "nonpayable",
      "type": "function"
    },
    {
      "inputs": [
        {
          "internalType": "uint16",
          "name": "buyFee",
          "type": "uint16"
        },
        {
          "internalType": "uint16",
          "name": "sellFee",
          "type": "uint16"
        },
        {
          "internalType": "uint16",
          "name": "transferFee",
          "type": "uint16"
        }
      ],
      "name": "setTaxes",
      "outputs": [],
      "stateMutability": "nonpayable",
      "type": "function"
    },
    {
      "inputs": [],
      "name": "swapThreshold",
      "outputs": [
        {
          "internalType": "uint256",
          "name": "",
          "type": "uint256"
        }
      ],
      "stateMutability": "view",
      "type": "function"
    },
    {
      "inputs": [],
      "name": "symbol",
      "outputs": [
        {
          "internalType": "string",
          "name": "",
          "type": "string"
        }
      ],
      "stateMutability": "view",
      "type": "function"
    },
    {
      "inputs": [],
      "name": "timeDelayBetweenTx",
      "outputs": [
        {
          "internalType": "uint256",
          "name": "",
          "type": "uint256"
        }
      ],
      "stateMutability": "view",
      "type": "function"
    },
    {
      "inputs": [],
      "name": "totalDelayTime",
      "outputs": [
        {
          "internalType": "uint256",
          "name": "",
          "type": "uint256"
        }
      ],
      "stateMutability": "view",
      "type": "function"
    },
    {
      "inputs": [],
      "name": "totalSupply",
      "outputs": [
        {
          "internalType": "uint256",
          "name": "",
          "type": "uint256"
        }
      ],
      "stateMutability": "view",
      "type": "function"
    },
    {
      "inputs": [
        {
          "internalType": "address",
          "name": "to",
          "type": "address"
        },
        {
          "internalType": "uint256",
          "name": "amount",
          "type": "uint256"
        }
      ],
      "name": "transfer",
      "outputs": [
        {
          "internalType": "bool",
          "name": "",
          "type": "bool"
        }
      ],
      "stateMutability": "nonpayable",
      "type": "function"
    },
    {
      "inputs": [],
      "name": "transferDelayEnabled",
      "outputs": [
        {
          "internalType": "bool",
          "name": "",
          "type": "bool"
        }
      ],
      "stateMutability": "view",
      "type": "function"
    },
    {
      "inputs": [
        {
          "internalType": "address",
          "name": "from",
          "type": "address"
        },
        {
          "internalType": "address",
          "name": "to",
          "type": "address"
        },
        {
          "internalType": "uint256",
          "name": "amount",
          "type": "uint256"
        }
      ],
      "name": "transferFrom",
      "outputs": [
        {
          "internalType": "bool",
          "name": "",
          "type": "bool"
        }
      ],
      "stateMutability": "nonpayable",
      "type": "function"
    },
    {
      "inputs": [
        {
          "internalType": "address",
          "name": "newOwner",
          "type": "address"
        }
      ],
      "name": "transferOwnership",
      "outputs": [],
      "stateMutability": "nonpayable",
      "type": "function"
    },
    {
      "inputs": [],
      "name": "treasuryAddress",
      "outputs": [
        {
          "internalType": "address",
          "name": "",
          "type": "address"
        }
      ],
      "stateMutability": "view",
      "type": "function"
    },
    {
      "inputs": [
        {
          "internalType": "bool",
          "name": "newVal",
          "type": "bool"
        }
      ],
      "name": "updateGasLimitActive",
      "outputs": [],
      "stateMutability": "nonpayable",
      "type": "function"
    },
    {
      "inputs": [
        {
          "internalType": "uint256",
          "name": "percent",
          "type": "uint256"
        }
      ],
      "name": "updateMaxBuyLimit",
      "outputs": [],
      "stateMutability": "nonpayable",
      "type": "function"
    },
    {
      "inputs": [
        {
          "internalType": "uint256",
          "name": "newValue",
          "type": "uint256"
        }
      ],
      "name": "updateMaxGasPriceLimit",
      "outputs": [],
      "stateMutability": "nonpayable",
      "type": "function"
    },
    {
      "inputs": [
        {
          "internalType": "bool",
          "name": "newVal",
          "type": "bool"
        }
      ],
      "name": "updateTransferDelayEnabled",
      "outputs": [],
      "stateMutability": "nonpayable",
      "type": "function"
    },
    {
      "stateMutability": "payable",
      "type": "receive"
    }
  ],
  "bytecode": "0x60806040523480156200001157600080fd5b5060405162002ec338038062002ec383398101604081905262000034916200055c565b8585600362000044838262000697565b50600462000053828262000697565b505050620000706200006a6200035960201b60201c565b6200035d565b600880546001600160a01b0319166001600160a01b038916179055620000ca3384612710620000a0868262000779565b620000ac908962000795565b620000b89190620007af565b620000c4919062000779565b620003af565b8215620000dd57620000dd8784620003af565b600a849055600e849055600780546001600160a01b038981166001600160a01b0319928316179092556040805160608101825260008082526020808301829052918301819052601b805465ffffffffffff19169055601a805487871695169490941784556005548516815260178252828120805460ff19908116600190811790925530835284832080549091169091179055662386f26fc10000600955611f40600d55601055670de0b6b3a7640000600f559154815163c45a015560e01b8152915193169263c45a0155926004808401939192918290030181865afa158015620001cb573d6000803e3d6000fd5b505050506040513d601f19601f82011682018060405250810190620001f19190620007d2565b6001600160a01b031663c9c6539630601a60009054906101000a90046001600160a01b03166001600160a01b031663ad5c46486040518163ffffffff1660e01b8152600401602060405180830381865afa15801562000254573d6000803e3d6000fd5b505050506040513d601f19601f820116820180604052508101906200027a9190620007d2565b6040516001600160e01b031960e085901b1681526001600160a01b039283166004820152911660248201526044016020604051808303816000875af1158015620002c8573d6000803e3d6000fd5b505050506040513d601f19601f82011682018060405250810190620002ee9190620007d2565b600680546001600160a01b0319166001600160a01b039290921691821790556000908152601860205260409020805460ff1916600117905550505060115550506016805462ffff0019169055504260125564037e11d6006014556005601555610e106013556200080d565b3390565b600580546001600160a01b038381166001600160a01b0319831681179093556040519116919082907f8be0079c531659141344cd1fd0a4f28419497f9722a3daafe3b4186f6b6457e090600090a35050565b6001600160a01b0382166200040a5760405162461bcd60e51b815260206004820152601f60248201527f45524332303a206d696e7420746f20746865207a65726f206164647265737300604482015260640160405180910390fd5b80600260008282546200041e9190620007f7565b90915550506001600160a01b038216600081815260208181526040808320805486019055518481527fddf252ad1be2c89b69c2b068fc378daa952ba7f163c4a11628f55a4df523b3ef910160405180910390a35050565b505050565b80516001600160a01b03811681146200049257600080fd5b919050565b634e487b7160e01b600052604160045260246000fd5b600082601f830112620004bf57600080fd5b81516001600160401b0380821115620004dc57620004dc62000497565b604051601f8301601f19908116603f0116810190828211818310171562000507576200050762000497565b816040528381526020925086838588010111156200052457600080fd5b600091505b8382101562000548578582018301518183018401529082019062000529565b600093810190920192909252949350505050565b600080600080600080600060e0888a0312156200057857600080fd5b62000583886200047a565b60208901519097506001600160401b0380821115620005a157600080fd5b620005af8b838c01620004ad565b975060408a0151915080821115620005c657600080fd5b50620005d58a828b01620004ad565b955050606088015193506080880151925060a08801519150620005fb60c089016200047a565b905092959891949750929550565b600181811c908216806200061e57607f821691505b6020821081036200063f57634e487b7160e01b600052602260045260246000fd5b50919050565b601f8211156200047557600081815260208120601f850160051c810160208610156200066e5750805b601f850160051c820191505b818110156200068f578281556001016200067a565b505050505050565b81516001600160401b03811115620006b357620006b362000497565b620006cb81620006c4845462000609565b8462000645565b602080601f831160018114620007035760008415620006ea5750858301515b600019600386901b1c1916600185901b1785556200068f565b600085815260208120601f198616915b82811015620007345788860151825594840194600190910190840162000713565b5085821015620007535787850151600019600388901b60f8161c191681555b5050505050600190811b01905550565b634e487b7160e01b600052601160045260246000fd5b818103818111156200078f576200078f62000763565b92915050565b80820281158282048414176200078f576200078f62000763565b600082620007cd57634e487b7160e01b600052601260045260246000fd5b500490565b600060208284031215620007e557600080fd5b620007f0826200047a565b9392505050565b808201808211156200078f576200078f62000763565b6126a6806200081d6000396000f3fe60806040526004361061037a5760003560e01c806379cc6790116101d1578063c5f956af11610102578063deb5896e116100a0578063efac45851161006f578063efac458514610a33578063f2fde38b14610a53578063f887ea4014610a73578063f901796614610a9357600080fd5b8063deb5896e146109c7578063df8408fe146109dd578063ed14834f146109fd578063edf731c514610a1d57600080fd5b8063c8c8ebe4116100dc578063c8c8ebe41461094a578063cd5f101d14610960578063d83067861461098d578063dd62ed3e146109a757600080fd5b8063c5f956af146108ea578063c6aca36b1461090a578063c876d0b91461092a57600080fd5b8063a2065e711161016f578063a9059cbb11610149578063a9059cbb1461086e578063aa4bde281461088e578063b62496f5146108a4578063bd74c046146108d457600080fd5b8063a2065e7114610818578063a335d4ff14610838578063a457c2d71461084e57600080fd5b80638da5cb5b116101ab5780638da5cb5b146107a55780639375da5a146107c357806395d89b41146107e35780639d0014b1146107f857600080fd5b806379cc6790146107455780637dee3290146107655780638d0cb35a1461078557600080fd5b806332cde664116102ab578063560d52d41161024957806370a082311161022357806370a08231146106aa578063715018a6146106e0578063738c6c09146106f5578063768dc7101461071557600080fd5b8063560d52d4146106695780636aa5b37f1461067e5780636f15d9751461069457600080fd5b806342966c681161028557806342966c68146105c2578063452ed4f1146105e25780634a569e941461061a5780635342acb41461063057600080fd5b806332cde6641461056c578063395093511461058c5780633d90fff9146105ac57600080fd5b806318160ddd116103185780631e293c10116102f25780631e293c10146104f057806323b872dd1461051057806327a14fc214610530578063313ce5671461055057600080fd5b806318160ddd1461046f5780631b11c874146104845780631c06a7e11461049a57600080fd5b8063095ea7b311610354578063095ea7b3146103e7578063123e6cd814610417578063148829f5146104395780631630e97f1461044f57600080fd5b80630445b6671461038657806306fdde03146103af578063094d776f146103d157600080fd5b3661038157005b600080fd5b34801561039257600080fd5b5061039c60095481565b6040519081526020015b60405180910390f35b3480156103bb57600080fd5b506103c4610ab2565b6040516103a691906121bc565b3480156103dd57600080fd5b5061039c60135481565b3480156103f357600080fd5b5061040761040236600461221f565b610b44565b60405190151581526020016103a6565b34801561042357600080fd5b50610437610432366004612262565b610b5e565b005b34801561044557600080fd5b5061039c600c5481565b34801561045b57600080fd5b5061043761046a366004612284565b610bd7565b34801561047b57600080fd5b5060025461039c565b34801561049057600080fd5b5061039c60145481565b3480156104a657600080fd5b50601b546104cb9061ffff808216916201000081048216916401000000009091041683565b6040805161ffff948516815292841660208401529216918101919091526060016103a6565b3480156104fc57600080fd5b5061043761050b366004612284565b610c4a565b34801561051c57600080fd5b5061040761052b36600461229d565b610c79565b34801561053c57600080fd5b5061043761054b366004612284565b610c9d565b34801561055c57600080fd5b50604051601281526020016103a6565b34801561057857600080fd5b506104376105873660046122de565b610ccc565b34801561059857600080fd5b506104076105a736600461221f565b610d13565b3480156105b857600080fd5b5061039c60155481565b3480156105ce57600080fd5b506104376105dd366004612284565b610d35565b3480156105ee57600080fd5b50600654610602906001600160a01b031681565b6040516001600160a01b0390911681526020016103a6565b34801561062657600080fd5b5061039c60105481565b34801561063c57600080fd5b5061040761064b366004612321565b6001600160a01b031660009081526017602052604090205460ff1690565b34801561067557600080fd5b5061039c603281565b34801561068a57600080fd5b5061039c60115481565b3480156106a057600080fd5b5061039c600f5481565b3480156106b657600080fd5b5061039c6106c5366004612321565b6001600160a01b031660009081526020819052604090205490565b3480156106ec57600080fd5b50610437610d42565b34801561070157600080fd5b50610437610710366004612262565b610d56565b34801561072157600080fd5b50610407610730366004612321565b60176020526000908152604090205460ff1681565b34801561075157600080fd5b5061043761076036600461221f565b610dca565b34801561077157600080fd5b50610437610780366004612284565b610de3565b34801561079157600080fd5b506104376107a036600461234e565b610e12565b3480156107b157600080fd5b506005546001600160a01b0316610602565b3480156107cf57600080fd5b506104376107de366004612321565b610e34565b3480156107ef57600080fd5b506103c4610e5e565b34801561080457600080fd5b50610437610813366004612284565b610e6d565b34801561082457600080fd5b5061043761083336600461234e565b610e7a565b34801561084457600080fd5b5061039c61271081565b34801561085a57600080fd5b5061040761086936600461221f565b610e9e565b34801561087a57600080fd5b5061040761088936600461221f565b610f19565b34801561089a57600080fd5b5061039c600a5481565b3480156108b057600080fd5b506104076108bf366004612321565b60186020526000908152604090205460ff1681565b3480156108e057600080fd5b5061039c600b5481565b3480156108f657600080fd5b50600854610602906001600160a01b031681565b34801561091657600080fd5b50610437610925366004612284565b610f27565b34801561093657600080fd5b506016546104079062010000900460ff1681565b34801561095657600080fd5b5061039c600e5481565b34801561096c57600080fd5b5061039c61097b366004612321565b60196020526000908152604090205481565b34801561099957600080fd5b506016546104079060ff1681565b3480156109b357600080fd5b5061039c6109c2366004612369565b610f5f565b3480156109d357600080fd5b5061039c600d5481565b3480156109e957600080fd5b506104376109f83660046123a2565b610f8a565b348015610a0957600080fd5b50600754610602906001600160a01b031681565b348015610a2957600080fd5b5061039c60125481565b348015610a3f57600080fd5b50610437610a4e366004612284565b610fbd565b348015610a5f57600080fd5b50610437610a6e366004612321565b610fca565b348015610a7f57600080fd5b50601a54610602906001600160a01b031681565b348015610a9f57600080fd5b5060165461040790610100900460ff1681565b606060038054610ac1906123d7565b80601f0160208091040260200160405190810160405280929190818152602001828054610aed906123d7565b8015610b3a5780601f10610b0f57610100808354040283529160200191610b3a565b820191906000526020600020905b815481529060010190602001808311610b1d57829003601f168201915b5050505050905090565b600033610b52818585611040565b60019150505b92915050565b610b66611164565b612710600d548261ffff16610b7b9190612427565b1115610bce5760405162461bcd60e51b815260206004820181905260248201527f50657263656e742063616e7420626520686967686572207468616e203130302560448201526064015b60405180910390fd5b61ffff16601055565b610bdf611164565b6402540be400811015610c455760405162461bcd60e51b815260206004820152602860248201527f6d6178206761732070726963652063616e74206265206c6f776572207468616e604482015267203130206757656960c01b6064820152608401610bc5565b601455565b610c52611164565b61271081610c5f60025490565b610c69919061243a565b610c739190612451565b600e5550565b600033610c878582856111be565b610c92858585611232565b506001949350505050565b610ca5611164565b61271081610cb260025490565b610cbc919061243a565b610cc69190612451565b600a5550565b610cd4611164565b601b805461ffff94851663ffffffff199091161762010000938516939093029290921765ffff0000000019166401000000009190931602919091179055565b600033610b52818585610d268383610f5f565b610d309190612427565b611040565b610d3f3382611264565b50565b610d4a611164565b610d546000611396565b565b610d5e611164565b6127106010548261ffff16610d739190612427565b1115610dc15760405162461bcd60e51b815260206004820181905260248201527f50657263656e742063616e7420626520686967686572207468616e20313030256044820152606401610bc5565b61ffff16600d55565b610dd58233836111be565b610ddf8282611264565b5050565b610deb611164565b61271081610df860025490565b610e02919061243a565b610e0c9190612451565b60115550565b610e1a611164565b601680549115156101000261ff0019909216919091179055565b610e3c611164565b600780546001600160a01b0319166001600160a01b0392909216919091179055565b606060048054610ac1906123d7565b610e75611164565b600955565b610e82611164565b60168054911515620100000262ff000019909216919091179055565b60003381610eac8286610f5f565b905083811015610f0c5760405162461bcd60e51b815260206004820152602560248201527f45524332303a2064656372656173656420616c6c6f77616e63652062656c6f77604482015264207a65726f60d81b6064820152608401610bc5565b610c928286868403611040565b600033610b52818585611232565b6000610f34600283612451565b905047610f4182306113e8565b6000610f4d8247612473565b9050610f598382611546565b50505050565b6001600160a01b03918216600090815260016020908152604080832093909416825291909152205490565b610f92611164565b6001600160a01b03919091166000908152601760205260409020805460ff1916911515919091179055565b610fc5611164565b600f55565b610fd2611164565b6001600160a01b0381166110375760405162461bcd60e51b815260206004820152602660248201527f4f776e61626c653a206e6577206f776e657220697320746865207a65726f206160448201526564647265737360d01b6064820152608401610bc5565b610d3f81611396565b6001600160a01b0383166110a25760405162461bcd60e51b8152602060048201526024808201527f45524332303a20617070726f76652066726f6d20746865207a65726f206164646044820152637265737360e01b6064820152608401610bc5565b6001600160a01b0382166111035760405162461bcd60e51b815260206004820152602260248201527f45524332303a20617070726f766520746f20746865207a65726f206164647265604482015261737360f01b6064820152608401610bc5565b6001600160a01b0383811660008181526001602090815260408083209487168084529482529182902085905590518481527f8c5be1e5ebec7d5bd14f71427d1e84f3dd0314c0f7b2291e5b200ac8c7c3b925910160405180910390a3505050565b6005546001600160a01b03163314610d545760405162461bcd60e51b815260206004820181905260248201527f4f776e61626c653a2063616c6c6572206973206e6f7420746865206f776e65726044820152606401610bc5565b60006111ca8484610f5f565b90506000198114610f5957818110156112255760405162461bcd60e51b815260206004820152601d60248201527f45524332303a20696e73756666696369656e7420616c6c6f77616e63650000006044820152606401610bc5565b610f598484848403611040565b61123d8383836115fd565b6112478383611b0b565b1561125457611254611bc0565b61125f838383611cee565b505050565b6001600160a01b0382166112c45760405162461bcd60e51b815260206004820152602160248201527f45524332303a206275726e2066726f6d20746865207a65726f206164647265736044820152607360f81b6064820152608401610bc5565b6001600160a01b038216600090815260208190526040902054818110156113385760405162461bcd60e51b815260206004820152602260248201527f45524332303a206275726e20616d6f756e7420657863656564732062616c616e604482015261636560f01b6064820152608401610bc5565b6001600160a01b0383166000818152602081815260408083208686039055600280548790039055518581529192917fddf252ad1be2c89b69c2b068fc378daa952ba7f163c4a11628f55a4df523b3ef910160405180910390a3505050565b600580546001600160a01b038381166001600160a01b0319831681179093556040519116919082907f8be0079c531659141344cd1fd0a4f28419497f9722a3daafe3b4186f6b6457e090600090a35050565b604080516002808252606082018352600092602083019080368337019050509050308160008151811061141d5761141d61249c565b6001600160a01b03928316602091820292909201810191909152601a54604080516315ab88c960e31b81529051919093169263ad5c46489260048083019391928290030181865afa158015611476573d6000803e3d6000fd5b505050506040513d601f19601f8201168201806040525081019061149a91906124b2565b816001815181106114ad576114ad61249c565b6001600160a01b039283166020918202929092010152601a5442916114d59130911686611040565b601a5460405163791ac94760e01b81526001600160a01b039091169063791ac9479061150e908790600090879089908890600401612513565b600060405180830381600087803b15801561152857600080fd5b505af115801561153c573d6000803e3d6000fd5b5050505050505050565b601a5442906115629030906001600160a01b0316600019611040565b601a5460405163f305d71960e01b81523060048201819052602482018690526000604483018190526064830152608482015260a481018390526001600160a01b039091169063f305d71990849060c40160606040518083038185885af11580156115d0573d6000803e3d6000fd5b50505050506040513d601f19601f820116820180604052508101906115f5919061254f565b505050505050565b6001600160a01b0383166116695760405162461bcd60e51b815260206004820152602d60248201527f45524332303a207472616e736665722066726f6d20746865205a45524f5f414460448201526c4452455353206164647265737360981b6064820152608401610bc5565b6001600160a01b0382166116d35760405162461bcd60e51b815260206004820152602b60248201527f45524332303a207472616e7366657220746f20746865205a45524f5f4144445260448201526a455353206164647265737360a81b6064820152608401610bc5565b6000811161173d5760405162461bcd60e51b815260206004820152603160248201527f5472616e7366657220616d6f756e74206d7573742062652067726561746572206044820152707468616e205a45524f5f4144445245535360781b6064820152608401610bc5565b60165462010000900460ff16801561176357506013546012546117609190612427565b42105b156118fe576005546001600160a01b038481169116148015906117945750601a546001600160a01b03838116911614155b80156117ae57506006546001600160a01b03838116911614155b80156117c357506001600160a01b0382163014155b156118fe5760115415611813576011548111156118135760405162461bcd60e51b815260206004820152600e60248201526d26b0bc10213abc902634b6b4ba1760911b6044820152606401610bc5565b601654610100900460ff1615611875576014543a11156118755760405162461bcd60e51b815260206004820152601860248201527f4761732070726963652065786365656473206c696d69742e00000000000000006044820152606401610bc5565b336000908152601960205260409020544210156118e05760405162461bcd60e51b815260206004820152602360248201527f5f7472616e736665723a3a205472616e736665722044656c617920656e61626c60448201526232b21760e91b6064820152608401610bc5565b6015546118ed9042612427565b336000908152601960205260409020555b6005546001600160a01b0384811691161480159061192a57506005546001600160a01b03838116911614155b801561193e57506001600160a01b03821615155b801561195557506001600160a01b03821661dead14155b801561196a57506001600160a01b0382163014155b8015611979575060165460ff16155b1561125f576001600160a01b03831660009081526018602052604090205460ff1615611a7957600e54811115611a0f5760405162461bcd60e51b815260206004820152603560248201527f427579207472616e7366657220616d6f756e742065786365656473207468652060448201527436b0bc2a3930b739b0b1ba34b7b720b6b7bab73a1760591b6064820152608401610bc5565b600a546001600160a01b038316600090815260208190526040902054611a359083612427565b111561125f5760405162461bcd60e51b815260206004820152601360248201527213585e081dd85b1b195d08195e18d959591959606a1b6044820152606401610bc5565b6001600160a01b03821660009081526018602052604090205460ff1615611a0f57600e5481111561125f5760405162461bcd60e51b815260206004820152603660248201527f53656c6c207472616e7366657220616d6f756e742065786365656473207468656044820152751036b0bc2a3930b739b0b1ba34b7b720b6b7bab73a1760511b6064820152608401610bc5565b306000908152602081905260408120546009548110158015611b30575060165460ff16155b8015611b4a57506006546001600160a01b03858116911614155b8015611b6e57506006546001600160a01b0316600090815260208190526040812054115b8015611b9357506001600160a01b03831660009081526017602052604090205460ff16155b8015611bb857506001600160a01b03841660009081526017602052604090205460ff16155b949350505050565b6016805460ff1916600117905530600090815260208190526040902054600b5415611c1357600b54611bf28183612473565b6000600b55600754909250611c119082906001600160a01b03166113e8565b505b8015611ce15760105415611c4557611c4561271060105483611c35919061243a565b611c3f9190612451565b306113e8565b600d5415611c6b57611c6b612710600d5483611c61919061243a565b6109259190612451565b6000612710601054600d54611c809190612427565b611c8a908461243a565b611c949190612451565b611c9e9083612473565b90508015611cbd57600854611cbd9082906001600160a01b03166113e8565b600f5415611cdf57600f544790811115611cdd57611cdd8161dead611dc9565b505b505b506016805460ff19169055565b6016546001600160a01b038416600090815260176020526040902054829160ff90811615911680611d3757506001600160a01b03841660009081526017602052604090205460ff165b15611d40575060005b8015611db757600080611d54878787611f2f565b90925090506000611d658284612427565b1115611db45780611d768387612473565b611d809190612473565b93508015611da05780600b6000828254611d9a9190612427565b90915550505b611db48730611daf8486612427565b612018565b50505b611dc2858584612018565b5050505050565b6040805160028082526060820183526000926020830190803683375050601a54604080516315ab88c960e31b815290519394506001600160a01b039091169263ad5c4648925060048083019260209291908290030181865afa158015611e33573d6000803e3d6000fd5b505050506040513d601f19601f82011682018060405250810190611e5791906124b2565b81600081518110611e6a57611e6a61249c565b60200260200101906001600160a01b031690816001600160a01b0316815250503081600181518110611e9e57611e9e61249c565b6001600160a01b039283166020918202929092010152601a54604051637ff36ab560e01b815242929190911690637ff36ab5908690611ee89060009087908990889060040161257d565b60006040518083038185885af1158015611f06573d6000803e3d6000fd5b50505050506040513d6000823e601f3d908101601f19168201604052611dc291908101906125b2565b6001600160a01b0383166000908152601860205260408120548190819081908190819060ff1615611f7257601b54611f6b9061ffff1685612427565b9350611fca565b6001600160a01b03881660009081526018602052604090205460ff1615611faa57601b54611f6b9062010000900461ffff1685612427565b601b54611fc390640100000000900461ffff1685612427565b9350600190505b8315611fea57612710611fdd858961243a565b611fe79190612451565b92505b8061200a57612710611ffd60328961243a565b6120079190612451565b91505b509097909650945050505050565b6001600160a01b03831661207c5760405162461bcd60e51b815260206004820152602560248201527f45524332303a207472616e736665722066726f6d20746865207a65726f206164604482015264647265737360d81b6064820152608401610bc5565b6001600160a01b0382166120de5760405162461bcd60e51b815260206004820152602360248201527f45524332303a207472616e7366657220746f20746865207a65726f206164647260448201526265737360e81b6064820152608401610bc5565b6001600160a01b038316600090815260208190526040902054818110156121565760405162461bcd60e51b815260206004820152602660248201527f45524332303a207472616e7366657220616d6f756e7420657863656564732062604482015265616c616e636560d01b6064820152608401610bc5565b6001600160a01b03848116600081815260208181526040808320878703905593871680835291849020805487019055925185815290927fddf252ad1be2c89b69c2b068fc378daa952ba7f163c4a11628f55a4df523b3ef910160405180910390a3610f59565b600060208083528351808285015260005b818110156121e9578581018301518582016040015282016121cd565b506000604082860101526040601f19601f8301168501019250505092915050565b6001600160a01b0381168114610d3f57600080fd5b6000806040838503121561223257600080fd5b823561223d8161220a565b946020939093013593505050565b803561ffff8116811461225d57600080fd5b919050565b60006020828403121561227457600080fd5b61227d8261224b565b9392505050565b60006020828403121561229657600080fd5b5035919050565b6000806000606084860312156122b257600080fd5b83356122bd8161220a565b925060208401356122cd8161220a565b929592945050506040919091013590565b6000806000606084860312156122f357600080fd5b6122fc8461224b565b925061230a6020850161224b565b91506123186040850161224b565b90509250925092565b60006020828403121561233357600080fd5b813561227d8161220a565b8035801515811461225d57600080fd5b60006020828403121561236057600080fd5b61227d8261233e565b6000806040838503121561237c57600080fd5b82356123878161220a565b915060208301356123978161220a565b809150509250929050565b600080604083850312156123b557600080fd5b82356123c08161220a565b91506123ce6020840161233e565b90509250929050565b600181811c908216806123eb57607f821691505b60208210810361240b57634e487b7160e01b600052602260045260246000fd5b50919050565b634e487b7160e01b600052601160045260246000fd5b80820180821115610b5857610b58612411565b8082028115828204841417610b5857610b58612411565b60008261246e57634e487b7160e01b600052601260045260246000fd5b500490565b81810381811115610b5857610b58612411565b634e487b7160e01b600052604160045260246000fd5b634e487b7160e01b600052603260045260246000fd5b6000602082840312156124c457600080fd5b815161227d8161220a565b600081518084526020808501945080840160005b838110156125085781516001600160a01b0316875295820195908201906001016124e3565b509495945050505050565b85815284602082015260a06040820152600061253260a08301866124cf565b6001600160a01b0394909416606083015250608001529392505050565b60008060006060848603121561256457600080fd5b8351925060208401519150604084015190509250925092565b84815260806020820152600061259660808301866124cf565b6001600160a01b03949094166040830152506060015292915050565b600060208083850312156125c557600080fd5b825167ffffffffffffffff808211156125dd57600080fd5b818501915085601f8301126125f157600080fd5b81518181111561260357612603612486565b8060051b604051601f19603f8301168101818110858211171561262857612628612486565b60405291825284820192508381018501918883111561264657600080fd5b938501935b828510156126645784518452938501939285019261264b565b9897505050505050505056fea264697066735822122094cca053446ae904c6e1d6d987ba059a9a1251eeae850ac6a55881357dec670b64736f6c63430008110033",
  "linkReferences": {},
  "deployedLinkReferences": {}
}